:020000040800F2
:10000000907D0120290300085D5E0008E948000892
:10001000595E000803120008419300080000000028
:10002000000000000000000000000000690200085D
:100030007D15000800000000C502000829640008C2
:100040004303000843030008430300084303000878
:100050004303000843030008430300084303000868
:100060004303000843030008430300084303000858
:10007000C5130008430300084303000843030008B6
:100080004303000843030008430300084303000838
:10009000091200081912000843030008430300086E
:1000A0004303000843030008430300084303000818
:1000B0004303000843030008430300084303000808
:1000C000430300084303000843030008916200084B
:1000D00043030008430300084303000843030008E8
:1000E00043030008430300084303000843030008D8
:1000F0004303000825650008430300084303000884
:1001000043030008430300084303000843030008B7
:1001100043030008430300084303000843030008A7
:10012000D513000843030008E5130008F513000881
:100130004303000843030008430300084303000887
:10014000291200083912000843030008615E000804
:100150004303000843030008430300084303000867
:100160004303000843030008430300084303000857
:100170004303000843030008430300080000000095
:10018000430300084303000800F002F800F05CF8A5
:100190000AA090E8000C82448344AAF10107DA45E2
:1001A00001D100F051F8AFF2090EBAE80F0013F0D8
:1001B000010F18BFFB1A43F0010318479CBC000055
:1001C000BCBC00000A444FF0000C10F8013B13F0D7
:1001D000070408BF10F8014B1D1108BF10F8015BA0
:1001E000641E05D010F8016B641E01F8016BF9D193
:1001F00013F0080F1EBF10F8014BAD1C0C1B09D1EA
:100200006D1E58BF01F801CBFAD505E014F8016B5B
:1002100001F8016B6D1EF9D59142D6D370470000ED
:100220000023002400250026103A28BF78C1FBD8FF
:10023000520728BF30C148BF0B6070471FB50BF095
:10024000A6F81FBD10B510BD00F0BBF91146FFF7B1
:10025000F5FF09F0EBFC00F0D9F903B4FFF7F2FF6A
:1002600003BC00F0DDF900002C4B19680868B0E809
:10027000F04F80F30988BFF36F8F4FF0000080F3D9
:10028000118870470000000008480068006880F38B
:1002900008884FF0000080F3148862B661B6BFF39F
:1002A0004F8FBFF36F8F00DF00BF00BF08ED00E08E
:1002B000DFF80C00016841F470010160704700BF75
:1002C00088ED00E0EFF30980BFF36F8F134B1A68DE
:1002D0001EF0100F08BF20ED108A20E9F04F1060CB
:1002E00009B44FF0500080F31188BFF34F8FBFF374
:1002F0006F8F0AF0A3FA4FF0000080F3118809BC59
:1003000019680868B0E8F04F1EF0100F08BFB0EC95
:10031000108A80F30988BFF36F8F70470C020020AA
:10032000EFF30580704700000948804709480047FF
:10033000FEE7FEE7FEE7FEE7FEE7FEE7FEE7FEE795
:10034000FEE7FEE704480549054A064B70470000F2
:100350001165000889010008907D0020907D012032
:1003600090FD002090FD002053EA020C00F069800F
:100370002DE9F04B4FF00006002B1FBFB3FA83F5B9
:1003800003FA05F424FA05F65E4012BF1643B2FAEA
:1003900082F502FA05F4C5F120051EBF22FA05FC1C
:1003A00044EA0C04203556EA044C4FEA144418BFC2
:1003B000641C4FF000084FF00009904271EB030CF1
:1003C00039D3002919BFB1FA81F701FA07F6B0FA5B
:1003D00080F700FA07F6C7F120071EBF20FA07FCD6
:1003E00046EA0C062037B6FBF4FCA7EB0507103FE6
:1003F00007F01F0BCBF120060CFA0BFB2CFA06F6CC
:1004000044BFB3460026202FA4BF5E464FF0000B2A
:100410005BEA060C08BF4FF0010B19EB0B09ABFBB5
:10042000027C48EB0608C01B06FB02CC0BFB03CC8E
:1004300071EB0C01C1E70B46024641464846BDE858
:10044000F08B13B54FF000004FF00001AFF30080C8
:10045000BDE81C407047032A40F2308010F0030CC6
:1004600000F0158011F8013BBCF1020F624498BF07
:1004700011F801CB00F8013B38BF11F8013BA2F1A4
:10048000040298BF00F801CB38BF00F8013B11F01F
:10049000030300F02580083AC0F0088051F8043BBF
:1004A000083A51F804CBA0E80810F5E7121D5CBF2C
:1004B00051F8043B40F8043BAFF30080D20724BF5F
:1004C00011F8013B11F801CB48BF11F8012B24BFF3
:1004D00000F8013B00F801CB48BF00F8012B704742
:1004E00010B5203AC0F00B80B1E81850203AA0E8CF
:1004F0001850B1E81850A0E81850BFF4F5AF5FEA03
:10050000027C24BFB1E81850A0E8185044BF18C9B5
:1005100018C0BDE810405FEA827C24BF51F8043B5C
:1005200040F8043B08BF7047D20728BF31F8023BB0
:1005300048BF11F8012B28BF20F8023B48BF00F844
:10054000012B70474FF0000200B5134694469646C3
:10055000203922BFA0E80C50A0E80C50B1F12001D6
:10056000BFF4F7AF090728BFA0E80C5048BF0CC084
:100570005DF804EB890028BF40F8042B08BF7047E2
:1005800048BF20F8022B11F0804F18BF00F8012B54
:10059000704770477047704710B500F00DF800685D
:1005A00010BD10B5044600F007F8046010BD00004F
:1005B000004870472C7D0020004870472C7D0020AB
:1005C00070477546FFF7F4FFAE460500694653468F
:1005D00020F00700854618B020B5FFF7B3FEBDE850
:1005E00020404FF000064FF000074FF000084FF09A
:1005F000000B21F00701AC46ACE8C009ACE8C0092B
:10060000ACE8C009ACE8C0098D46704710B5044697
:10061000AFF300802046BDE81040FFF71EBE00008B
:1006200001491820ABBEFEE7260002009FED221A0A
:100630009FED222A20EE010AB5EE001A30EE010AE3
:10064000BDEEC01A11EE100AB5EE400AF1EE10FA36
:10065000B8BF013801EE100AB8EEC11A30EE410AF7
:1006600020EE020ABDEEC01A9FED152A11EE100A07
:10067000002130EE021AB1EB502F4BF254611CBF37
:100680000020B0EE410AC0F6000101EE100A01EBB5
:100690008001B8EE411A30EE410A91ED001A91ED59
:1006A000012AB7EE003A33EE403A23EE011A20EE6B
:1006B000020A31EE000A704783F9223E000000442E
:1006C000000000C4B0B5B0F800C00B889C4553D101
:1006D00045884B889D424FD113889C454CD1538807
:1006E0009D4249D143684968506805FB0CFC0022D3
:1006F000B2EB9C0F30D04FEA9C0200BF93ED000A92
:1007000091ED001A03F1100E30EE010A80ED000A9F
:1007100093ED010A91ED011A01F1100430EE010A86
:1007200080ED010A93ED020A91ED021A00F1100525
:1007300030EE010A80ED020A93ED030A91ED031AEF
:10074000013A30EE010A80ED030A7346284621463D
:10075000D4D12146284673461CF003020AD000BFBC
:10076000B3EC010AB1EC011A013A30EE010AA0EC37
:10077000010AF5D1002000E0FD2040B2B0BD00002C
:100780002DE9F04F81B02DED028B8EB0B0F800C096
:10079000B0F802A0D44540F03A810B88FD229C4578
:1007A00040F036814F88BB4240F0328140689FED77
:1007B000B08ABCF1000F009000F031814C686FF0FE
:1007C000030000EB8C09002700266546CDF828C001
:1007D000204609940A98401B08D0B1002046FFF734
:1007E000B1FE3846013004F10404FBD304F1040BDC
:1007F000B5F101084FF07E50206012D0A9EB8601C0
:100800005846FFF79FFE01205C4600BF013085423D
:1008100004F10404FAD10136013FB8F1000F454656
:10082000D8D1DDF828C0BCF1000F00F0F8804FEA05
:10083000CA00043002900998009900EB8A00C0F1C8
:100840000009042000EB8A00ACF1010801EB8A05E5
:100850004FEA8A03019001F1040B4FF0000E0F469E
:10086000564600200A460490039300BF0EFB0AF090
:1008700002EB800191ED000A0C910999B5EE400A56
:10088000F1EE10FA01EB80000D90CDF82080CDE95B
:1008900006950B922ED10EF1010060450DD200207D
:1008A000414600BF2A1892ED000AB5EE400AF1EE6B
:1008B00010FA06D101391844F4D10498012817D050
:1008C000D4E0A0EB0900002157F82130146842F869
:1008D000043B47F8214001318E42F5D10D9A514633
:1008E0001368046840F8043B013942F8044BF7D11F
:1008F000012004900C99AAEB0E0991ED008AB9F140
:10090000010F4FF07E5008600DD00120594600BF06
:1009100091ED000A013080EE080A864281ED000A5E
:1009200001F10401F4D10D995046CDF814B000BF87
:1009300091ED000A013880EE080AA1EC010AF7D116
:10094000DDF82C800998A9F1010B0022654600BF53
:10095000724505D108EB890300EB8A0036E000BF41
:100960000C9998ED008A91ED000ABBF1000F28EE7A
:10097000000A38EE400A88ED000A17D0012304214E
:1009800007EB010C08EB01049CED000A94ED001A42
:1009900028EE000A013331EE400A9E4201F10401C3
:1009A00084ED000AECD108EB010301E008F1040337
:1009B0000D9C5146B4EC011A90ED000A28EE011A84
:1009C00030EE410AA0EC010A0139F3D103EB8E08A5
:1009D000013D02F10102BBD1079D02980B9ADDF89F
:1009E00020800544039BDDF818900198DDF814B0D1
:1009F000DDF828C00432013E0EF1010EA8F1010815
:100A0000A9EB0309074483447FF430AF09E0FD22DA
:100A100050B20EB0BDEC028B01B0BDE8F08F0020EB
:100A20000490B5EE408AF1EE10FA4FF00002EFD1DB
:100A300004980128ECD00AFB0CF14FF000004FF0B5
:100A4000000271B1009B00BF93ED000AB5EE400AB1
:100A5000F1EE10FA05D10132914203F10403F3D112
:100A60000A468A4208BF6FF00400D2E7FB22CFE7B4
:100A7000000000002DE9F04F85B047880B889F42A9
:100A800040F08480B0F800B013889B4540F07E8031
:100A9000B1F802E053889E4578D1D0F804805068C0
:100AA00049680190BC0827F0030008EB800604FBAE
:100AB0000EF09FED390A07F0030C029101EB0010D4
:100AC0004FEA8E0200210090CDE903E70198DDF89E
:100AD00008A0009B00EB8109B0EE401A5746404643
:100AE00074B3554627464046B0EE401A95ED002AAD
:100AF00090ED003A154490ED014A23EE022A95ED5F
:100B0000003A154490ED025A31EE021A24EE032AFF
:100B100095ED003A154490ED036A31EE021A25EE88
:100B2000032A95ED003A31EE021A26EE032A31EE41
:100B3000021A013F00F110001544D7D11F4630467C
:100B4000BCF1000F0CD0654690ED002A97ED003AFD
:100B5000043022EE032A31EE021A013D1744F3D18C
:100B6000A9EC011ABEF1010E0AF1040A03F1040313
:100B7000B2D1DDF80CE0049F714408EB8708BBF1AB
:100B8000010B06EB8706A1D1002000E0FD2040B25A
:100B900005B0BDE8F08F00BF00000000B0B5B0F8B0
:100BA00000C00B889C4553D145884B889D424FD14E
:100BB00013889C454CD153889D4249D1436849686C
:100BC000506805FB0CFC0022B2EB9C0F30D04FEAC2
:100BD0009C0200BF93ED000A91ED001A03F1100E84
:100BE00030EE410A80ED000A93ED010A91ED011A01
:100BF00001F1100430EE410A80ED010A93ED020A82
:100C000091ED021A00F1100530EE410A80ED020A62
:100C100093ED030A91ED031A013A30EE410A80ED9B
:100C2000030A734628462146D4D1214628467346F6
:100C30001CF003020AD000BFB3EC010AB1EC011AA8
:100C4000013A30EE410AA0EC010AF5D1002000E0A3
:100C5000FD2040B2B0BD00002DE9F04FB0F800A07B
:100C60004A88924545D142880B889A4241D1D1F8B1
:100C700004C046684FEA920802F003094FEA0A1ED0
:100C80004FEA8A014FF0000B624600BFB8F1000F37
:100C90001AD01546474600BF336828462B60736854
:100CA0000D444350B3686C186B50F56806F110039F
:100CB00066186550013F06EB01051E46ECD100EBBE
:100CC0000E071E4602E000BF0CEB8B07B9F1000FC8
:100CD00006D0484656F8043B01383B600F44F9D132
:100CE0000BF1010BBAF1010A02F10402CED100208E
:100CF00000E0FD2040B2BDE8F08F00009FED201A1B
:100D00009FED202A20EE010ABDEEC01A11EE100A56
:100D1000B5EE400AF1EE10FAB8BF013801EE100A44
:100D2000B8EEC11A30EE410A20EE020ABDEEC01A3A
:100D30009FED152A11EE100A002130EE021AB1EBD8
:100D4000502F4BF254611CBF0020B0EE410AC0F698
:100D5000000101EE100A01EB8001B8EE411A30EEFD
:100D6000410A91ED001A91ED012AB7EE003A33EEF7
:100D7000403A23EE011A20EE020A31EE000A7047D3
:100D800083F9223E00000044000000C400BFFEE7DB
:100D900010B501221021024801F00CFB10BD00002B
:100DA0000000024010B500221021024801F002FBB1
:100DB00010BD00000000024010B50122114602489B
:100DC00001F0F8FA10BD00000004024010B5002246
:100DD0000121024801F0EEFA10BD000000040240BB
:100DE00010B50446FFF7DEFF922000F04BF9062213
:100DF0009549122000F032F9FFF7CAFF9248407877
:100E0000000200B2904909780843904908800846DA
:100E1000B0F9000000EE100AB8EEC00A8C48D0ED20
:100E2000000A20EE200AD4ED080A20EE200A84ED04
:100E3000000A8548C078000200B2834989780843D7
:100E4000824908800846B0F9000000EE100AB8EEAA
:100E5000C00A7F48D0ED000A20EE200AD4ED080A2F
:100E600020EE200A84ED010A77484079000200B2A2
:100E7000754909790843754908800846B0F90000AA
:100E800000EE100AB8EEC00A7148D0ED000A20EE5C
:100E9000200AD4ED080A20EE200A84ED020AFFF7AA
:100EA00095FF08226849002000F0D8F8FFF784FF7A
:100EB000654800780F284FD166480078F0B3624843
:100EC000C078000200B26049897808435F49088011
:100ED00094ED090A0846B0F9000000EE900AF8EE19
:100EE000E00A5D4890ED001A10EE810A84ED030AD5
:100EF00055484079000200B25349097908435349E3
:100F0000088094ED0A0A0846B0F9000000EE900A45
:100F1000F8EEE00A504890ED001A10EE810A84EDD8
:100F2000040A4948C079000200B247498979084358
:100F30004649088094ED0B0A084600E00DE0B0F940
:100F4000000000EE900AF8EEE00A434890ED001A27
:100F500010EE810A84ED050A44E03B48C0780002A7
:100F600000B2394989780843384908800846B0F901
:100F7000000000EE100AB8EEC00A3748D0ED000AB3
:100F800020EE200A84ED030A2F484079000200B2C7
:100F90002D49097908432D4908800846B0F9000019
:100FA00000EE100AB8EEC00A2B48D0ED000A20EE81
:100FB000200A84ED040A2448C079000200B22249C4
:100FC00089790843214908800846B0F9000000EEFD
:100FD000100AB8EEC00A2048D0ED000A20EE200A20
:100FE00084ED050AFFF7DEFEA22000F04BF8022296
:100FF0001549222000F032F8FFF7CAFE12480078A7
:10100000C0001149497840EA61101049088008463B
:10101000B0F90000B0F5806F05DB08460088A0F548
:10102000006000B208800948B0F9000000EE100A24
:10103000F8EEC00AB4EE001AB3EE070A00EE810A19
:1010400084ED070A10BD0000BE000020C60000208D
:1010500080000020900000208400002070B506462B
:101060000C46154646F0800000F00CF806E05520CE
:1010700000F008F82070641C681EC5B2002DF6D17F
:1010800070BD000001B582B04FF47A70012301AA4F
:1010900002A900900348006802F0F6FE9DF80400E3
:1010A0000EBD0000C8000020D2ED020A92ED021A27
:1010B000B6EE000A00EEC10AD2ED030A92ED031A61
:1010C00000EEC10AD0ED000A20EE200AD2ED010A9E
:1010D00092ED021A60EE810A92ED001AD2ED031A27
:1010E00041EE610A90ED011A00EE810AD2ED010A8B
:1010F00092ED031A60EE810A92ED001AD2ED021A07
:1011000041EE210A90ED021A00EE810AF0EE000A8B
:1011100020EE200A81ED000A92ED010AD2ED020ACA
:1011200020EE200AD2ED000A92ED031A00EE810AA9
:10113000D0ED000A60EE200A92ED011AD2ED011AFC
:10114000B6EE000A01EE610AD2ED031A92ED032A0F
:10115000B0EE401A01EEC21AD0ED011AB0EE600AEC
:1011600001EE210AD2ED020A92ED031A60EE810A25
:1011700092ED001AD2ED011A41EE610A90ED021AC9
:1011800000EE810AF0EE000A20EE200A81ED010A4D
:1011900092ED010AD2ED030A20EE200AD2ED000AF8
:1011A00092ED021A00EEC10AD0ED000A20EE200AEC
:1011B000D2ED020A92ED031A60EE810A92ED001A56
:1011C000D2ED011A41EE210A90ED011A00EE810ADA
:1011D00092ED011AD2ED011AF6EE000A41EE610A13
:1011E00092ED021AD2ED021A41EE610A90ED021A56
:1011F00000EE810AF0EE000A20EE200A81ED020ADC
:10120000704700BFFEE7000010B5024800F061FB28
:1012100010BD0000CC05002010B5024800F059FBBD
:1012200010BD0000CC05002010B5024800F051FBB5
:1012300010BD0000F405002010B5024800F049FB85
:1012400010BD0000F40500207CB505460E463AE0CE
:101250006B46214A3146284600F071FA00242EE000
:101260001E4850F824000068A84227D11A48006898
:101270001A4951F82410496B88421FD1174850F879
:101280002400D0F83900C0B11348007C134951F84C
:10129000241081F8380010490A69104951F82410C7
:1012A00001F12C006946FFF7D6F80C4A52F82400E9
:1012B00052F82420D2F8391088477CBD641C0848B5
:1012C00000788442CCD33146284600F024FA002826
:1012D000BED100BFF1E7000054090020140900202E
:1012E000240000200346042B15D007DC7BB1012B22
:1012F0000ED0022B0DD0032B12D10BE0202B0BD0E4
:10130000212B0AD0222B09D0232B09D107E008E09A
:1013100007E006E005E004E003E002E001E000E0B1
:1013200000BF00BF002070470020704710B50022AA
:101330000449054805F0F9FD0449034805F0E6FDB8
:10134000002010BD286E00204C610020286600207F
:1013500070B504460D462046296807F0CFFE2146A9
:10136000034805F0D3FD024805F09CFD002070BD48
:101370004C61002010B503460C460021084610BD04
:101380002DE9F04104460D4600260A48D0F8BC720B
:10139000D7F8140210B10120BDE8F0812A46214699
:1013A000044805F0C2FD034805F072FE06463046CB
:1013B000F2E700004C61002000BF012008F076FC3D
:1013C000FBE7000010B5024800F050FD10BD000022
:1013D0006C08002010B5024800F048FD10BD000068
:1013E0007406002010B5024800F040FD10BD00005A
:1013F0000C08002010B5024800F038FD10BD0000B8
:10140000D40600200146087810381823B0FBF3F208
:101410000848805CC865032A05D908686FF309008D
:10142000001D886503E008686FF309008865886D12
:101430007047000014B40008014600208A6A8B69D6
:10144000CBB932B1012A0DD0022A03D0032A10D120
:101450000EE000BFCB6A03F08073B3F1807F00D150
:10146000012007E0CB6AB3F1C07F00D1012001E089
:1014700000E000BF34E08B69B3F5005F1AD132B1F0
:10148000012A07D0022A03D0032A11D10AE000BFA3
:1014900001200EE0CB6A03F08073B3F1807F00D1AE
:1014A000012006E0CB6AB3F1C07F00D1012000E04B
:1014B00000BF15E032B1012A05D0022A04D0032A68
:1014C0000CD103E000BF00BF012008E0CB6A03F0AD
:1014D0008073B3F1807F00D1012000E000BF00BF26
:1014E0007047000008B50E480078B8B901200C49D3
:1014F00008700C48406800900B49009809688842C1
:1015000004D20A480068401C084908600548406841
:101510000549086000200249087000BF08BD0000AE
:1015200058000020001000E0480000204400002087
:1015300010B52DED028B82B004460E484068019034
:1015400020680199081A00EE100AF8EE400A0A48CD
:1015500090ED000AB8EE400A80EE801AB0EE418AA3
:1015600001982060FFF7BEFFB0EE480A02B0BDEC64
:10157000028B10BD001000E0380000207047D2ED53
:10158000020A92ED021AB6EE000A00EEC10AD2ED8E
:10159000030A92ED031A00EEC10AD0ED000A20EE14
:1015A000200AD2ED010A92ED021A60EE810A92ED54
:1015B000001AD2ED031A41EE210A90ED011A00EE55
:1015C000810AD2ED010A92ED031A60EE810A92EDD2
:1015D000001AD2ED021A41EE610A90ED021A00EEF5
:1015E000810AF0EE000A20EE200A81ED000A92ED59
:1015F000010AD2ED020A20EE200AD2ED000A92ED95
:10160000031A00EEC10AD0ED000A60EE200A92ED46
:10161000011AD2ED011AB6EE000A01EE610AD2ED0E
:10162000031A92ED032AB0EE401A01EEC21AD0ED71
:10163000011AB0EE600A01EE210AD2ED020A92ED23
:10164000031A60EE810A92ED001AD2ED011A41EE02
:10165000210A90ED021A00EE810AF0EE000A20EE57
:10166000200A81ED010A92ED010AD2ED030A20EE73
:10167000200AD2ED000A92ED021A00EE810AD0EDA6
:10168000000A20EE200AD2ED020A92ED031A60EE63
:10169000810A92ED001AD2ED011A41EE610A90ED35
:1016A000011A00EE810A92ED011AD2ED011AF6EE4E
:1016B000000A41EE610A92ED021AD2ED021A41EEE1
:1016C000610A90ED021A00EE810AF0EE000A20EEA7
:1016D000200A81ED020A704772B600BFFEE70000E3
:1016E00070B50A480468001D0568001D066834448A
:1016F00054B108220649204603F009FF0422044998
:101700001031284603F003FF70BD0000107AFF1F60
:10171000AA020020704710B50246002092F820303F
:10172000012B01D0022B09D121B91468E46804F01F
:10173000030003E01468246904F0030010BD70B5D1
:10174000044694F82050012D01D0022D7DD151B9CD
:101750002068C06800F0030080B9606A40F400109F
:101760006062012070BD2068006900F0030028B9A4
:10177000606A40F4001060620120F3E7206800F521
:10178000D87000EB0110006800F0040090609068D1
:1017900040B9206800F5D87000EB01100068400DDA
:1017A000106007E0206800F5D87000EB01100068B9
:1017B000C0085060206800F5D87000EB0110006888
:1017C00000F00200D060206800F5D87000EB011036
:1017D000406800F00F00082802D30820106108E0DC
:1017E000206800F5D87000EB0110406800F00F0091
:1017F0001061206800F5D87000EB0110406800F41B
:101800007F40000A9061206800F5D87000EB01105D
:101810004068000C5061206800F5D87000EB0110A2
:1018200080681870206800F5D87000EB011080689F
:1018300000F47F40000A5870206800F5D87000EB73
:101840000110806800F47F0000E03CE0000C98701C
:10185000206800F5D87000EB01108068000ED87089
:10186000206800F5D87000EB0110C068187120687E
:1018700000F5D87000EB0110C06800F47F40000A4A
:101880005871206800F5D87000EB0110C06800F4B2
:101890007F00000C9871206800F5D87000EB0110F3
:1018A000C068000ED87131B92068C06840F02000CF
:1018B0002668F06005E02068006940F02000266896
:1018C000306100204EE7606A40F4802060620120B1
:1018D00048E72DE9F05F0446002520684669206846
:1018E000D0F80490206887682068D0F80CA02068A1
:1018F000D0F810B02068D0F8188006F00100002859
:1019000055D007F00100C0B101202168886007F0C0
:10191000020018B1204600F08FFA0EE007F0040034
:1019200010B145F4006508E007F0080010B145F477
:10193000805502E0204600F07EFA07F48070C8B1BE
:101940004FF480702168886007F4007018B1204659
:1019500000F074FA0EE007F4806010B145F4005511
:1019600008E007F4006010B145F4804502E020462D
:1019700000F063FA07F48030C8B14FF4803021687A
:10198000886007F4003018B1204600F059FA0EE0E4
:1019900007F4802010B145F4004508E007F400206A
:1019A00010B145F4803502E0204600F048FA06F018
:1019B000080038B10AF0100020B145F4007510207D
:1019C0002168C86006F0040040B10AF0080028B1A0
:1019D00008202168C860204600F01CFA06F00200CA
:1019E00038B12068C06800F0030010B1204600F054
:1019F00012FA06F0400038B10BF0100020B145F4A7
:101A0000806510202168086106F0200040B10BF0CD
:101A1000080028B1082021680861204600F002FA79
:101A200006F0100038B12068006900F0030010B122
:101A3000204600F0F8F906F4003040B109F010003B
:101A400028B1102021684860204600F0F3F906F420
:101A5000803040B109F0080028B1082021684860B2
:101A6000204600F0EEF906F4004088B309F00400C7
:101A700078B306F4807020B108F0010008B145F099
:101A8000010506F4007020B108F0020008B145F02D
:101A9000020506F4806020B108F0040008B145F0AA
:101AA000040506F40060A0B108F0700088B108F0E9
:101AB0007000402817D006DC10280BD020280CD04E
:101AC000302819D10CE0502810D0602814D110E033
:101AD0001DE019E045F008050FE045F010050CE0A9
:101AE00045F0200509E045F0400506E045F0800599
:101AF00003E045F4807500E000BF00BF2068806906
:101B000020F07000216888610420216848602DB1B0
:101B1000606A284360622046FFF7FCFDBDE8F09F45
:101B200070B504460CB9012070BD94F8200010B9BE
:101B3000204600F0AFF82068006840F001002168FE
:101B4000086000F03DFC05460DE000F039FC401B4C
:101B50000A2808D9606A40F400306062052084F8E1
:101B600020000120E0E72068406800F00100002824
:101B7000EBD02068006820F002002168086000F0C7
:101B80001FFC05460DE000F01BFC401B0A2808D98D
:101B9000606A40F400306062052084F82000012073
:101BA000C2E72068406800F002000028EBD1207EE8
:101BB000012806D12068006840F080002168086094
:101BC00005E02068006820F0800021680860607EE1
:101BD000012806D12068006840F0400021680860B4
:101BE00005E02068006820F0400021680860A07EC1
:101BF000012806D12068006840F0200021680860B4
:101C000005E02068006820F0200021680860E07E80
:101C1000012806D12068006820F0100021680860C3
:101C200005E02068006840F0100021680860207F0F
:101C3000012806D12068006840F00800216808608B
:101C400005E02068006820F0080021680860607FD7
:101C5000012806D12068006840F00400216808606F
:101C600005E02068006820F0040021680860D4E9DD
:101C70000201084321690843616908436168491EFC
:101C800008432168C86100206062012084F82000B8
:101C9000002049E710B586B00446142101A8FEF7DC
:101CA00051FC56492068884249D155480068401C7B
:101CB000534908600846006801280FD100BF002082
:101CC00000905048006840F000704E490860084697
:101CD000006800F00070009000BF00BF00BF00204F
:101CE000009048481038006840F008004549103915
:101CF00008600846006800F00800009000BF00BFC0
:101D00000320019002200290002003900320049001
:101D10000920059001A93C4800F052FA0022052153
:101D2000142000F015FC142000F0FEFB0022052119
:101D3000152000F00DFC152000F0F6FB5CE03349A7
:101D40002068884258D100BF002000902D480068CC
:101D500040F080602B4908600846006800F0806011
:101D6000009000BF00BF26480068401C244908605E
:101D70000846006801280FD100BF002000902148CC
:101D8000006840F000701F4908600846006800F0D5
:101D90000070009000BF00BF00BF002000901948F5
:101DA0001038006840F002001649103908600846F3
:101DB000006800F00200009000BF00BF60200190AA
:101DC0000220029000200390032004900920059037
:101DD00001A90F4800F0F4F900220521402000F08D
:101DE000B7FB402000F0A0FB00220521412000F0BD
:101DF000AFFB412000F098FB06B010BD006400402E
:101E00001000002040380240000C024000680040F2
:101E100000040240704710B5044600212046FFF739
:101E200013FA10BD704710B5044601212046FFF794
:101E30000BFA10BD70477047704770477047704786
:101E400070477047014691F83500022803D0802082
:101E5000486501207047052081F835000868006852
:101E600020F001000A6810600020F3E7F8B504468E
:101E7000002000908C4800684FF41651B0FBF1F739
:101E8000A56D2E6894F85C1008208840304098B109
:101E90002068006800F0040070B12068006820F03D
:101EA00004002168086094F85C1008208840A8604D
:101EB000606D40F00100606594F85C10012088407E
:101EC000304068B12068406900F0800040B194F86B
:101ED0005C1001208840A860606D40F002006065E1
:101EE00094F85C1004208840304068B12068006895
:101EF00000F0020040B194F85C1004208840A86013
:101F0000606D40F00400606594F85C10102088401B
:101F1000304078B32068006800F0080050B394F8AF
:101F20005C1010208840A8602068006800F48020C1
:101F300080B12068006800F4002028B9206CC8B186
:101F40002046216C884715E0A06C98B12046A16C12
:101F500088470FE02068006800F4807028B9206886
:101F6000006820F0080021680860206C10B120464D
:101F7000216C884794F85C1020208840304000286D
:101F800065D02068006800F0100000285FD094F849
:101F90005C1020208840A86094F83500052828D1DE
:101FA0002068006820F016002168086020684069F9
:101FB00020F0800021684861206C08B9A06C28B12D
:101FC0002068006820F008002168086094F85C1020
:101FD0003F208840A860012084F8350000BF002021
:101FE00084F8340000BF206D10B12046216D884771
:101FF000F8BD2068006800F4802080B12068006887
:1020000000F4002028B9606C10B12046616C88474C
:102010001DE0E06BD8B12046E16B884717E02068EF
:10202000006800F4807068B92068006820F0100033
:1020300021680860012084F8350000BF002084F882
:10204000340000BFE06B10B12046E16B8847606D43
:1020500038B3606D00F00100F0B1052084F8350060
:102060002068006820F001002168086000BF009827
:10207000401C0090B84200D905E02068006800F0DC
:1020800001000028F3D100BF012084F8350000BF13
:10209000002084F8340000BFE06C10B12046E16CF1
:1020A000884700BFA4E70000200000202DE9F04190
:1020B0000446002500F084F9074614B90120BDE864
:1020C000F081606A00B100BF022084F8350000BFD3
:1020D000002084F8340000BF2068006820F0010070
:1020E000216808600AE000F06BF9C01B052805D9DB
:1020F00020206065032084F83500E0E72068006850
:1021000000F001000028EED1206805682148054054
:10211000D4E901010843E168084321690843616982
:102120000843A1690843E1690843216A084305435C
:10213000606A042803D1D4E90B01084305432068F1
:1021400005602068456925F00705606A0543606AF7
:1021500004280DD1A06A0543E06A48B12046FFF784
:102160006BF928B140206065012084F83500A6E7AE
:10217000206845612046FFF745F9064694F85C1053
:102180003F208840B06000206065012084F8350061
:10219000002094E73F8010F070B5044600F010F97D
:1021A00006462546681C10B104480078054400BF67
:1021B00000F006F9801BA842FAD370BD1C00002075
:1021C000F8B502460B460025002400200021D6E089
:1021D000012606FA01F51E6806EA0504AC4274D130
:1021E0001E7906F00306012E04D01E7906F00306C0
:1021F000022E13D190684F000326BE40B0434F001B
:10220000DE68BE4030439060506801268E40B04387
:102210001E79C6F300168E40304350601E7906F0DA
:102220000306032E09D0D0684F000326BE40B043FA
:102230004F009E68BE403043D0601E7906F0030612
:10224000022E13D1CF0802F1200656F827004E07C0
:10225000F70E0F26BE40B0434F07FF0E1E69BE406B
:102260003043CF0802F1200646F8270010684F00DF
:102270000326BE40B0431E7906F003064F00BE4061
:10228000304310605E6806F44036002E76D000BF02
:10229000002600963C4E366846F480463A4F3E6033
:1022A0003E46366806F48046009600BF00BF374EB3
:1022B0008F0856F827008E07370F0F26BE40B04311
:1022C000334EB24202D1002624E057E0314EB242F2
:1022D00001D101261EE0304EB24201D1022619E0A2
:1022E0002E4EB24201D1032614E02D4EB24201D14E
:1022F00004260FE02B4EB24201D105260AE02A4EF9
:10230000B24201D1062605E0284EB24201D107268D
:1023100000E008268F073F0FBE4030431B4E8F085A
:1023200046F82700224E3068A0435E6806F4801607
:1023300006B120431E4E3060361D3068A0435E68F3
:1023400006F4001606B12043194E361D3060184EB3
:10235000361F3068A0435E6806F4003606B120439D
:10236000134E361F3060361F3068A0435E6806F497
:10237000803606B120430E4E083E3060491C1029BD
:10238000FFF426AFF8BD0000443802400838014091
:10239000000002400004024000080240000C02401D
:1023A000001002400014024000180240001C0240CD
:1023B000083C01400AB1816101E00B048361704770
:1023C00001480068704700001400002003480068BE
:1023D0000349097808440149086070471400002047
:1023E0001C00002010B50D48006840F400700B4937
:1023F00008600846006840F480600860084600688D
:1024000040F480700860032000F0E0F80F2000F036
:1024100007F800F05FF8002010BD0000003C02400B
:102420002DE9F04188B004460027B84600BF0020DF
:1024300001902348006840F48070214908600846F4
:10244000006800F48070019000BF00BF02A903A8DB
:1024500001F064F8069F1FB901F088F8054602E014
:1024600001F084F845001748B5FBF0F0A0F1010831
:1024700015481649086040F2E7311448C160C0F8B9
:102480000480002101618160816101F023FE064624
:1024900096B90E4801F06CFE06466EB92D2000F08C
:1024A00043F8102C07D2002221462D2000F050F8CE
:1024B0000748046000E00126304608B0BDE8F0811E
:1024C0004038024040420F0000200040CC0800206D
:1024D0001800002008B500BF0020009011480068D7
:1024E00040F480400F4908600846006800F48040CE
:1024F000009000BF00BF00BF00200090081F0068D0
:1025000040F08050091F08600846006800F08050C5
:10251000009000BF00BF00220F21901E00F018F8AD
:1025200008BD0000443802400146084600280DDB83
:1025300000BF00BF00F01F0301229A4043099B0027
:1025400003F1E023C3F8002100BF00BF00BF7047C4
:102550002DE9F05F80460D461646002706F00CFF79
:10256000074639462A46334601F00700C0F1070AFC
:10257000BAF1040F02D94FF0040A01E0C0F1070AD2
:10258000D14600F1040ABAF1070F02D24FF0000A57
:1025900001E0A0F1030AD4464FF0010A0AFA09FA51
:1025A000AAF1010A0AEA020A0AFA0CFA4FF0010B30
:1025B0000BFA0CFBABF1010B0BEA030B4AEA0B0421
:1025C0002146404606F0E0FEBDE8F09F00BF00F067
:1025D0000702064B19684FF6FF031940044B0B43E3
:1025E00043EA0221014B196000BF70470CED00E087
:1025F0000000FA05704702461068416200207047EB
:10260000F0B5034615461868446A21B944EA054006
:102610001E68B06219E01868806A04EB104400225A
:1026200008E0186800F5827050F8220004EB1044AE
:10263000501CC2B2481E9042F3D844EA05471868BD
:1026400000F582704E1E40F826700020F0BD10B5D7
:102650000446D4F8E00405F096F910BD70B50446C0
:102660000D4605EBC50304F1140101EB8301CA68B3
:102670002946D4F8E00405F079F870BD70B5044639
:102680000D4605EBC50304F5157101EB8301CA681E
:102690002946D4F8E00405F0F1F870BD10B5044601
:1026A000D4F8E00405F072F910BD2DE9F0410446BC
:1026B0000D4605F08000802808D105F00F0000EBE2
:1026C000C00104F1140000EB810607E005F00F00E3
:1026D00000EBC00104F5157000EB8106314620685F
:1026E00006F0AAFB07463846BDE8F08170B50446FF
:1026F0000E4606F0800080280AD106F00F0000EB9D
:10270000C00104F1140000EB81050120687009E0AC
:1027100006F00F0000EBC00104F5157000EB810519
:102720000020687006F00F00287000BF94F8940431
:10273000012801D1022070BD012084F8940400BF5B
:102740002946206805F006FF00BF002084F89404A5
:1027500000BF00BFEFE770B504460E4606F00F005D
:102760002179884201D9012070BD06F080008028BF
:102770000AD106F00F0000EBC00104F1140000EBD9
:1027800081050120687009E006F00F0000EBC00130
:1027900004F5157000EB8105002068700020A8701A
:1027A00006F00F00287000BF94F89404012801D1AE
:1027B0000220D9E7012084F8940400BF294620684C
:1027C00006F0C6F800BF002084F8940400BF00BFE4
:1027D000CAE7024601F00F0000EBC00302F51570D6
:1027E00000EB8300406970472DE9F04705460E462F
:1027F00090461F464FF0000906F0800080280AD15D
:1028000006F00F0000EBC00105F1140000EB81049D
:102810000120607009E006F00F0000EBC00105F533
:10282000157000EB81040020607006F00F0020702E
:10283000C8F30A00A0602771607808B1207860832F
:10284000022F01D10020607100BF95F89404012887
:1028500002D10220BDE8F087012085F8940400BF72
:102860002146286805F082FD00BF002085F8940409
:1028700000BF4846EEE72DE9F04105460E461746F3
:10288000984606F00F0000EBC00105F5157000EB4F
:102890008104E760C4F8108000206061607006F079
:1028A0000F002070A879012800D1E761AA7921469C
:1028B000286806F0E1F80020BDE8F08170B5044614
:1028C0000D4605F00F002179884201D9012070BD25
:1028D00005F0800080280AD105F00F0000EBC00150
:1028E00004F1140000EB81060120707007E005EB95
:1028F000C50104F5157000EB810600207070012001
:10290000B07005F00F00307000BF94F894040128F7
:1029100001D10220DBE7012084F8940400BF314696
:10292000206806F05CF805F00F0028B9A17904F2E0
:102930009C42206805F0D4FF00BF002084F8940476
:1029400000BF00BFC3E72DE9F04105460E4617461C
:10295000984606F00F0000EBC00105F1140000EBF3
:102960008104E760C4F8108000206061012060707D
:1029700006F00F002070A879012800D1E761AA793C
:102980002146286806F078F80020BDE8F0812DE99E
:10299000FE4F0446D4F800B05E46206806F02EFBD9
:1029A000002874D1206806F074FB08B9BDE8FE8FDA
:1029B00040F608008059C0F30D20C4F8D404206804
:1029C00006F067FB00F00200022805D1206840698C
:1029D00000F0020021684861206806F05AFB00F010
:1029E0001000102845D12068806920F0100021686F
:1029F0008861DBF8209009F00F0000EBC00104F5BE
:102A0000157000EB810AC9F3434002281AD147F63A
:102A1000F07009EA000030B3C9F30A125846DAF838
:102A20000C1006F03BFBC9F30A11DAF80C0008445D
:102A3000CAF80C00C9F30A11DAF814000844CAF8FD
:102A4000140010E0C9F3434006280CD1082204F218
:102A50009C41584606F022FBC9F30A11DAF814002B
:102A60000844CAF814002068806940F0100021680A
:102A70008861206806F00DFB00F40020B0F5002FFF
:102A80007BD10025206806F0D4FA029072E0E1E2E2
:102A9000029800F00100002868D0E9B2206806F032
:102AA000EBFA804608F0010048B1012106F53060DC
:102AB00000EB451081602946204603F00BFA08F030
:102AC0000800082809D1082106F5306000EB451000
:102AD00081602946204603F0CBF908F01000102849
:102AE00005D1102106F5306000EB4510816008F03B
:102AF0000200022824D1DBF8140000F080008028B6
:102B000007D140F60400805940F4806140F604008B
:102B1000815105EBC50104F5157000EB810A9AF8A7
:102B20000300012806D100208AF80300E9B22046FC
:102B300000F09BFA022106F5306000EB4510816041
:102B400008F02000202805D1202106F5306000EB98
:102B50004510816008F40050B0F5005F06D14FF4D5
:102B6000005106F5306000EB451081606D1C029845
:102B700040080290029800288AD1206806F089FA5D
:102B800000F48020B0F5802F7DD1206806F047FA50
:102B9000029000259AE0029800F00100002873D00E
:102BA000E9B2206806F04FFA804608F00100F0B361
:102BB00005F00F0101208840019040F63400815952
:102BC000019821EA000040F634018851012106F500
:102BD000106000EB45108160A079012824D105EB3D
:102BE000C50104F1140000EB810005EBC502C168CA
:102BF00004F1140000EB82008068014405EBC5027B
:102C000004F1140000EB8200C1606DB905EBC50151
:102C100004F1140000EB8100006928B904F29C4221
:102C20000121206805F05CFEE9B2204600E001E0E9
:102C3000FFF714FD08F00800082805D1082106F563
:102C4000106000EB4510816008F01000102805D1DD
:102C5000102106F5106000EB4510816008F040007F
:102C6000402805D1402106F5106000EB4510816039
:102C700008F0020002281DD12946584606F081F9C5
:102C800005EBC50101E025E01CE004F1140000EBB8
:102C9000810A9AF80300012806D100208AF803006F
:102CA000E9B2204600F0D8F9022106F5106000EBE9
:102CB0004510816008F08000802803D12946204615
:102CC00003F0AAF96D1C02984008029002980028AF
:102CD0007FF461AF206806F0DCF900F00040B0F14D
:102CE000004F1CD140F60400805920F0010140F64D
:102CF0000400815194F8CC04012807D1002084F805
:102D0000CC0400212046FFF775FC02E0204600F0CD
:102D1000D1FA2068406900F00040216848612068CD
:102D200006F0B7F900F40060B0F5006F0ED140F680
:102D30000800805900F0010010B1204600F012FB9D
:102D40002068406900F4006021684861206806F04E
:102D5000A0F900F48050B0F5805F7ED140F6040009
:102D6000805920F0010140F60400815110212068B3
:102D700006F007F9002732E04FF67F3106F51060C4
:102D800000EB4710816006F5106000EB471000680B
:102D900020F4001106F5106000EB471001604FF6BB
:102DA0007F3106F5306000EB4710816006F530603A
:102DB00000EB4710006820F4001106F5306000EBCE
:102DC0004710016006F5306000EB4710006840F0E6
:102DD000006106F5306000EB471001607F1C207930
:102DE000B842C9D840F61C00805940F0011140F6A5
:102DF0001C008151E07B70B1D6F8840840F00B01D3
:102E0000C6F8841840F64400805940F00B0140F6A3
:102E1000440081510FE040F61400805942F22B012A
:102E2000084340F614018851081F805940F00B01F7
:102E30004FF401608151D6F8000820F4FE60C6F816
:102E40000008A17904F29C42206805F049FD206841
:102E5000406900F48050216800E000E0486120688B
:102E600006F017F900F40050B0F5005F17D12068A4
:102E700005F0E4FA206806F0AEF8E07100F070FBAF
:102E80000090E2792068009906F0B8F9204600F039
:102E9000F9F92068406900F4005021684861206811
:102EA00006F0F7F800F00800082808D1204600F0E6
:102EB00008FA2068406900F008002168486120682D
:102EC00006F0E7F800F08000802818D1DBF8180041
:102ED00020F08000CBF8180001250DE005EBC501BE
:102EE00004F5157000EB8100C078012803D1E9B228
:102EF0002046FFF7DAFB6D1C2079A842EED8206847
:102F000006F0C7F800F48010B0F5801F2DD1012520
:102F100022E006F5106000EB4510D0F8009005EBBC
:102F2000C50104F1140000EB81000079012812D1E1
:102F300009F00040B0F1004F0DD1012105EBC502B1
:102F400004F1140000EB8200C170E8B240F080018F
:102F50002046FFF7AAFB6D1C2079A842D9D820682B
:102F6000406900F4801021684861206806F091F8FB
:102F700000F40010B0F5001F44D1012538E006F53B
:102F8000306000EB4510D0F8009005EBC50104F56A
:102F9000157000EB81000079012828D109F000406C
:102FA000B0F1004F23D194F8D40400F00100C9F32C
:102FB000004188421BD1012105EBC50204F51570C3
:102FC00000EB8200C170DBF8180040F08000CBF805
:102FD0001800DBF8140000F0800040B940F604004F
:102FE000805940F4007140F60400815103E06D1CEB
:102FF0002079A842C3D800BF2068406900F40010BF
:1030000021684861206806F044F800F08040B0F183
:10301000804F08D12046FFF71AFB2068406900F076
:10302000804021684861206806F033F800F0040011
:1030300004280FD12068D0F8049009F00400042877
:1030400002D12046FFF72AFB2068406840EA0900C9
:103050002168486000BFA9E470B504460D462946C2
:10306000D4F8E00404F0FEFC70BD70B504460D46D3
:103070002946D4F8E00404F019FD70BDF8B5044603
:103080000CB90120F8BD266894F8950428B90020F1
:1030900084F89404204600F0A1F8032084F89504F5
:1030A000B6F1A04F01D10021A171206805F010FCFC
:1030B000207C8DF8000094E80F0005F0D3F920B1D2
:1030C000022084F895040120DCE70021206806F046
:1030D00043F820B1022084F895040120D2E70025AE
:1030E00031E0012105EBC50204F1140000EB820080
:1030F000417005EBC50104F1140000F8215005EB07
:10310000C50100EB81004583002105EBC50204F1F8
:10311000140000EB8200017105EBC50204F11400FC
:1031200000EB8200816005EBC50204F1140000EBA6
:103130008200C16005EBC50204F1140000EB8200BF
:103140000161681CC5B22079A842CADC00252AE0CA
:10315000002105EBC50204F5157000EB82004170FB
:1031600005EBC50104F5157000F82150002105EBB1
:10317000C50200EB8200017105EBC50204F5157074
:1031800000EB8200816005EBC50204F5157000EBD1
:103190008200C16005EBC50204F5157000EB8200EA
:1031A0000161681CC5B22079A842D1DC207C8DF871
:1031B000000094E80F0005F097FA20B1022084F88F
:1031C000950401205EE700206074012084F89504D6
:1031D000206805F077FA002054E7000010B586B0AB
:1031E0000446142101A8FDF7ADF92068B0F1A04F05
:1031F00042D100BF002000902048006840F001004C
:103200001E4908600846006800F00100009000BFF9
:1032100000BF4FF4C05001900220029000200390A4
:10322000032004900A20059001A91548FEF7C8FF65
:1032300000BF1248001D006840F080000F49091DC2
:10324000086000BF002000900C481430006840F473
:1032500080400A49143108600846006800F4804044
:10326000009000BF00BF00BF002205214320FFF7F0
:103270006FF94320FFF758F906B010BD303802400F
:103280000000024070B504460125E07908B9002528
:1032900006E0E079022801D1012501E0FEF71CFAE1
:1032A0002946D4F8E00404F0ABFCD4F8E00404F0C0
:1032B00051FC70BD10B50446D4F8E00404F081FC64
:1032C00010BD10B50446D4F8E00404F085FC10BD30
:1032D00070B504460D4600BF94F89404012801D14E
:1032E000022070BD012084F8940400BF6574294653
:1032F000206805F065FF00BF002084F8940400BF3B
:1033000000BFEEE710B5044604F29C41D4F8E00497
:1033100004F08DFC10BD70B50446256800BF94F81C
:103320009404012801D1022070BD012084F8940486
:1033300000BFE86800F0400030B1607B012803D195
:10334000A86B40F48030A863206805F0EBFD20688E
:1033500005F0A6F900BF002084F8940400BF00BF68
:10336000E2E7000010B50446D4F8E00404F0BCFC29
:103370002068D0F8000E40F001002168C1F8000E6E
:10338000E07A28B10348006840F00600014908606F
:1033900010BD000010ED00E070B504460D460CB9FC
:1033A000012070BD5848006800F00700A84209D20B
:1033B00055490D700846006800F00700A84201D08A
:1033C0000120EEE7207800F0020002281DD12078CD
:1033D00000F00400042805D14C48006840F4E05097
:1033E0004A490860207800F00800082805D14748BD
:1033F000006840F46040454908604448006820F097
:10340000F000A168084341490860207800F00100FD
:10341000A8B36068012807D13C4808380068C0F3A9
:103420004040B8B90120BCE76068022802D060685B
:10343000032807D1354808380068C0F3406048B910
:103440000120AEE7314808380068C0F3400008B9F1
:103450000120A6E72D48006820F0030061680843BA
:103460002A490860FEF7ACFF064609E0FEF7A8FF10
:10347000801B41F28831884202D9032091E707E09E
:103480002248006800F00C006168B0EB810FEDD1BC
:103490001D48006800F00700A84209D91A490D70BC
:1034A0000846006800F00700A84201D0012078E734
:1034B000207800F00400042807D11448006820F4A4
:1034C000E050E168084311490860207800F00800E6
:1034D000082808D10D48006820F46040216940EABE
:1034E000C1000A49086000F061F808490968C1F3A1
:1034F0000311074A515CC840064908600648006845
:10350000FEF78EFF00204CE7003C024008380240E6
:103510001CB4000820000020180000200F220260C8
:103520000D4A126802F0030242600B4A126802F070
:10353000F0028260084A126802F4E052C260064A51
:10354000126802F46042D2080261044A126802F072
:1035500007020A607047000008380240003C024041
:1035600001480068704700002000002000B5FFF708
:10357000F7FF04490968C1F38221034A515CC8403E
:1035800000BD0000083802402CB4000800B5FFF769
:10359000E7FF04490968C1F34231034A515CC8405E
:1035A00000BD0000083802402CB400082DE9F047A7
:1035B000002400250026A1462548006800F00C00E4
:1035C00020B1042805D008283AD105E0DFF884901E
:1035D00039E0DFF8849036E01D48001F006800F0F5
:1035E0003F041B48001F006800F4800078B11A48AF
:1035F0001749091F0968C1F38811A0FB0170014632
:10360000224600233846FCF7AFFE05460EE011487F
:103610000F49091F0968C1F38811A0FB0170014619
:10362000224600233846FCF79FFE05460848001F47
:103630000068C0F30140401C4600B5FBF6F902E00B
:10364000DFF8109000BF00BF4846BDE8F0870000DB
:10365000083802400024F400001BB700F8B5044607
:103660000CB90120F8BD207800F00100002874D0CA
:10367000F948006800F00C0004280DD0F6480068F6
:1036800000F00C00082813D1F348001F006800F474
:103690008000B0F5800F0BD1EF4808380068C0F308
:1036A0004040002859D06068002856D10120D9E751
:1036B00000BF6068B0F5803F08D1E748083800686F
:1036C00040F48030E449083908601EE06068B0F5D5
:1036D000A02F0DD1E0480838006840F48020DE4972
:1036E000083908600846006840F4803008600CE043
:1036F000D9480838006820F48030D7490839086074
:103700000846006820F48020086000BF606890B11F
:10371000FEF756FE054606E0FEF752FE401B642803
:1037200001D903209EE7CC4808380068C0F3404028
:103730000028F1D011E0FEF743FE054606E0FEF753
:103740003FFE401B642801D903208BE7C24808389C
:103750000068C0F340400028F1D1207800F002005A
:1037600002285FD1BC48006800F00C0058B1BA488C
:10377000006800F00C0008281CD1B748001F006842
:1037800000F48000B0B9B44808380068C0F34000C5
:1037900020B1E068012801D0012063E7AE48083875
:1037A000006820F0F800216940EAC100AA49083900
:1037B000086037E0E06800B30120A8490860FEF720
:1037C000FFFD054606E0FEF7FBFD401B022801D980
:1037D000032047E7A04808380068C0F340000028ED
:1037E000F1D09D480838006820F0F800216940EACF
:1037F000C10099490839086014E000209749086021
:10380000FEF7DEFD054606E0FEF7DAFD401B022866
:1038100001D9032026E7904808380068C0F340002B
:103820000028F1D1207800F0080008282CD1606928
:10383000A8B101208A490860FEF7C2FD054606E0EE
:10384000FEF7BEFD401B022801D903200AE782488B
:103850006C300068C0F340000028F1D014E0002074
:103860007F490860FEF7ACFD054606E0FEF7A8FDBF
:10387000401B022801D90320F4E677486C30006829
:10388000C0F340000028F1D1207800F004000428A3
:1038900070D1002770483830006800F0805090B92F
:1038A00000BF002000906C483830006840F0805025
:1038B0006949383108600846006800F0805000907F
:1038C00000BF00BF01276748006800F48070B0B9EE
:1038D0006448006840F4807062490860FEF770FD3B
:1038E000054606E0FEF76CFD401B022801D90320C7
:1038F000B8E65C48006800F480700028F2D000BF91
:10390000A068012808D154486830006840F00100E0
:103910005149683108601DE0A06805280DD14E4866
:103920006830006840F004004B4968310860084680
:10393000006840F0010008600CE04748683000680B
:1039400020F001004449683108600846006820F012
:103950000400086000BFA068A8B1FEF731FD05466D
:1039600009E0FEF72DFD401B41F28831884202D963
:10397000032077E626E0384868300068C0F340004E
:103980000028EED013E0FEF71BFD054608E0FEF729
:1039900017FD401B41F28831884201D9032061E6BE
:1039A0002D4868300068C0F340000028EFD1012F97
:1039B00007D129483830006820F080502649383136
:1039C000086000BFA069002845D02348006800F0C7
:1039D0000C0008285DD0A069022845D100201F49AD
:1039E0000866FEF7EDFC054606E0FEF7E9FC401B25
:1039F000022801D9032035E6174808380068C0F3CB
:103A000040600028F1D1D4E907010843616A40EA27
:103A100081110122A06AC2EB500041EA00412C2032
:103A2000005D41EA00600C49091F086001200B4954
:103A30000866FEF7C5FC054606E0FEF7C1FC401B24
:103A4000022801D903200DE6034808380068C0F3B6
:103A500040600028F1D049E00838024000004742A9
:103A6000800E474200700040002021490866FEF7A2
:103A7000A7FC054606E0FEF7A3FC401B022801D97F
:103A80000320EFE51B480068C0F340600028F2D136
:103A90002CE0A069012800D1E4E51648001D066865
:103AA000A069012820D006F48001E06981421BD181
:103AB00006F03F01206A814216D147F6C0703040BF
:103AC000616AB0EB811F0FD106F440310122A06A78
:103AD000C2EB5000B1EB004F06D106F070612C2014
:103AE000005DB1EB006F01D00120BBE50020B9E51E
:103AF000000047420038024070470000F8B5044615
:103B00002068466820688568C5F3801048B905F0CC
:103B1000010030B1C6F3801018B12046216C8847EF
:103B2000F8BDC5F3400030B1C6F3C01018B120464F
:103B3000616C8847F4E7C5F3401030B9C5F38010D5
:103B400018B9C5F3002000287CD0C6F34010002827
:103B50007DD0C5F38010F0B194F8510003280ED049
:103B6000606D40F00400606500BF00200090206898
:103B7000C068009020688068009000BF0BE000BF24
:103B8000002000902068C068009020688068009045
:103B900000BF00BFC4E7C5F3401088B1606D40F0BE
:103BA0000100606500BF00200090206880680090E0
:103BB0002068006820F040002168086000BF00BF56
:103BC000C5F3002058B1606D40F00800606500BF8B
:103BD0000020009020688068009000BF00BF606DEA
:103BE00078B32068406820F0E00021684860012038
:103BF00084F8510006F00200022802D006F001000D
:103C000008B32068406820F0030021684860E06C39
:103C100050B11048E16C0865E06CFEF713F918B17B
:103C2000606D40F040006065A06C50B10948A16C27
:103C30000865A06CFEF706F918B1606D40F0400011
:103C4000606503E003E02046FFF756FF68E700BF2A
:103C500066E70000A162000810B504460CB9012017
:103C600010BD606A38B96068B0F5827F00D105E0A8
:103C70000021E16102E00021216161610021A16276
:103C800094F8510028B9002084F85000204600F034
:103C900047F8022084F851002068006820F04000B6
:103CA00021680860A08800F48270218901F4044131
:103CB0000843A18901F400610843217C01F002015D
:103CC0000843217D01F001010843218B01F40071BB
:103CD0000843217F01F0380108432021095D01F0EC
:103CE00080010843218D01F40051084321680860D8
:103CF0000421A06901EA104094F8241001F0100199
:103D00000843216848602068C06920F40060216889
:103D1000C86100206065012084F8510000209FE701
:103D200010B586B00446142101A8FCF70BFC4F49DE
:103D3000206888427ED100BF002000904C48006877
:103D400040F480504A4908600846006800F48050FA
:103D5000009000BF00BF00BF00200090444814380E
:103D6000006840F0020042491439086008460068C3
:103D700000F00200009000BF00BF00BF00200090D4
:103D80000846006840F0010008600846006800F03E
:103D90000100009000BF00BF182001900220029097
:103DA00001200390032004900520059001A93148CB
:103DB000FEF706FA80200190022002900120039075
:103DC000032004900520059001A92B48FEF7F8F97F
:103DD0002A482B4908604FF0C060486000212848FD
:103DE0008160C1604FF480610161002141618161A6
:103DF000C161016204214162032181620021C1622B
:103E00000163FEF753F908B1FDF766FC00BF1C48DB
:103E1000E064846300BF194848301A4908604FF0D5
:103E2000C06048604021174881600021C1604FF4A4
:103E3000806100E018E00161002141618161C161A0
:103E400001624162FEF732F908B1FDF745FC00BF9F
:103E50000C48A064846300BF002205212320FEF7E4
:103E600077FB2320FEF760FB06B010BD0030014059
:103E70004438024000040240000002401064024046
:103E800074060020D40600202DE9FE4F04460F469C
:103E900090461D460C9E01200190FEF791FA814646
:103EA00094F851B060680290AA46BBF1010F0BD0A4
:103EB0000298B0F5827F04D1A06810B9BBF1040F5D
:103EC00002D00220BDE8FE8F1FB1B8F1000F00D074
:103ED0000DB90120F6E700BF94F85000012801D188
:103EE0000220EFE7012084F8500000BF94F8510051
:103EF000042802D0052084F8510000206065C4F831
:103F00003880E587A5872763E586A58620646064F9
:103F10002068006800F04000402805D02068006854
:103F200040F0400021680860E068B0F5006F52D1B1
:103F3000606810B1BAF1010F09D1206B00882168C7
:103F4000C860206B801C2063E08E401EE0863BE052
:103F50002068806800F00200022810D1E08E70B165
:103F6000019801280BD1206B00882168C860206B64
:103F7000801C2063E08E401EE086002001902068B7
:103F8000806800F0010068B1E08F58B12068C06817
:103F9000A16B0880A06B801CA063E08F401EE087AF
:103FA00001200190FEF70CFAA0EB0900B0420BD300
:103FB000701C48B1012084F8510000BF002084F833
:103FC000500000BF03207DE7E08E0028C0D1E08FC5
:103FD0000028BDD152E0606810B1BAF1010F09D1DB
:103FE000206B007821680873206B401C2063E08EF2
:103FF000401EE0863CE02068806800F00200022855
:1040000010D1E08E70B1019801280BD1206B00789F
:1040100021680873206B401C2063E08E401EE08600
:10402000002001902068806800F0010068B1E08FF6
:1040300058B12068C068A16B0870A06B401CA063D9
:10404000E08F401EE08701200190FEF7B9F9A0EB58
:104050000900B04201D3701C00B94EB9012084F8A8
:10406000510000BF002084F8500000BF032029E762
:10407000E08E0028BFD1E08F0028BCD14A463146EF
:10408000204602F017F940B12020606500BF0020F3
:1040900084F8500000BF012014E7A06850B900BFA9
:1040A000002000902068C068009020688068009020
:1040B00000BF00BF012084F8510000BF002084F839
:1040C000500000BF606D08B10120FBE60020F9E65A
:1040D0007047704710B504460CB9012010BD94F824
:1040E0003D0028B9002084F83C00204600F026F866
:1040F000022084F83D00211D206802F01BFA0120F7
:1041000084F8460000BF84F83E0001213F2001559D
:10411000402001554120015500BF00BF012084F817
:10412000420043200155442001554520015500BF60
:10413000012084F83D000020D0E7000008B50A4ABD
:10414000016891420FD100BF002100910749096821
:1041500041F40031054A11601146096801F400314B
:10416000009100BF00BF08BD004401404438024038
:10417000014691F83D00012801D00120704702203E
:1041800081F83D000868C06840F001000B68D86005
:104190001A4B086898421BD00868B0F1804F17D0BE
:1041A000174B0868984213D0164B086898420FD0F6
:1041B000154B086898420BD0144B0868984207D0FA
:1041C000134B0868984203D0124B086898420CD1F0
:1041D0000868806800F00702062A0CD008680068AA
:1041E00040F001000B68186005E00868006840F0C6
:1041F00001000B6818600020C0E7000000000140CB
:104200000004004000080040000C00400004014091
:104210000040014000180040704770B50446206817
:10422000C5682068066906F00200022819D105F069
:104230000200022815D1401F216808610120207763
:104240002068806900F0030018B12046FFF7E4FF02
:1042500005E0204600F0C8F8204600F07CF9002078
:10426000207706F00400042819D105F00400042882
:1042700015D1C04321680861022020772068806939
:1042800000F4407018B12046FFF7C6FF05E0204655
:1042900000F0AAF8204600F05EF90020207706F032
:1042A0000800082819D105F00800082815D1C043D6
:1042B00021680861042020772068C06900F00300AD
:1042C00018B12046FFF7A8FF05E0204600F08CF863
:1042D000204600F040F90020207706F0100010285A
:1042E00019D105F01000102815D1C04321680861CC
:1042F000082020772068C06900F4407018B120467B
:10430000FFF78AFF05E0204600F06EF8204600F037
:1043100022F90020207706F0010048B105F00100E5
:1043200030B16FF0010021680861204600F014F9F7
:1043300006F08000802809D105F08000802805D192
:10434000C043216808612046FFF7C2FE06F0400026
:10435000402809D105F04000402805D1C04321681C
:104360000861204600F004F906F02000202809D159
:1043700005F02000202805D1C043216808612046AF
:10438000FFF7A7FE70BD000010B586B004461421EB
:1043900001A8FCF7D7F81149206888421CD100BF5A
:1043A000002000900E48006840F020000C49086092
:1043B0000846006800F02000009000BF00BF4020C9
:1043C00001900220029000200390049003200590A9
:1043D00001A90448FDF7F4FE06B010BD00440140F9
:1043E000303802400014024070472DE9F041044685
:1043F0000D461646002700BF94F83C00012802D164
:104400000220BDE8F081012084F83C0000BF36B1F5
:10441000042E1BD0082E31D00C2E5ED145E029464B
:10442000206802F0F7F82068806940F008002168F1
:1044300088612068806920F0040021688861206814
:104440008069296908432168886148E02946206815
:1044500002F018F92068806940F4006021688861E2
:104460002068806920F48060216888612068806904
:10447000296940EA01202168886130E029462068E6
:1044800002F03EF92068C06940F008002168C86168
:104490002068C06920F004002168C8612068C069F4
:1044A000296908432168C86119E02946206802F09B
:1044B00063F92068C06940F400602168C861206821
:1044C000C06920F480602168C8612068C0692969DA
:1044D00040EA01202168C86101E0012700BF00BF58
:1044E00000BF002084F83C0000BF384689E710B5C3
:1044F00004460CB9012010BD94F83D0028B90020F5
:1045000084F83C00204600F025F8022084F83D00A5
:10451000211D206802F00EF8012084F8460000BF3B
:1045200084F83E0001213F200155402001554120E3
:10453000015500BF00BF012084F84200432001550F
:10454000442001554520015500BF012084F83D005D
:104550000020D0E77047704710B504460349206833
:10456000884201D1FDF732FF10BD0000002000405D
:10457000704710B504460CB9012010BDA06900B108
:1045800000E000BF94F8410028B9002084F8400002
:10459000204600F029F8242084F841002068C068F3
:1045A00020F400502168C860204602F00FF920680E
:1045B000006920F49040216808612068406920F07B
:1045C0002A00216848612068C06840F400502168D2
:1045D000C86000206064202084F8410084F8420014
:1045E0000020606300BFC8E710B586B00446142100
:1045F00001A8FBF7A7FF6649206888426DD100BF7C
:10460000002000906348006840F010006149086095
:104610000846006800F01000009000BF00BF00BF17
:10462000002000905B481438006840F002005949AF
:10463000143908600846006800F00200009000BFCE
:1046400000BF00BF002000900846006840F0010055
:1046500008600846006800F00100009000BF00BF3D
:1046600080200190022002900020039003200490FB
:104670000720059001A94848FDF7A2FD4FF40070FE
:104680000190022002900020039003200490072054
:10469000059001A94148FDF793FD41484149086053
:1046A0004FF00060486000213E488160C1604FF4D7
:1046B000806101610021416181614FF48071C161BC
:1046C000002101624162FDF7F1FC08B1FDF704F839
:1046D00000BF3448E063846357E033492068884270
:1046E00053D100BF002000902A48001F006840F40A
:1046F00080202849091F08600846006800F48020CF
:10470000009000BF00BF00BF002000902148143877
:10471000006840F004001F4914390860084600682A
:1047200000F00400009000BF00BF4FF44060019013
:10473000022002900020039003200490072005909F
:1047400001A91A48FDF73CFD19481A4908604FF0C5
:1047500000604860002117488160C1604FF48061AB
:1047600001610021416181614FF48071C1614902A1
:10477000016200214162FDF799FC08B1FCF7ACFF32
:1047800000BF0C48E063846300BF06B010BD0000AA
:104790000010014044380240000402400000024082
:1047A000406402400C08002000480040000802401D
:1047B000286002406C08002070B504460020207478
:1047C000A37B484D2D8803FB05F26168D4F8F40003
:1047D000FBF786FEA27B434B1B8802FB03F160685C
:1047E000FBF7B0FEA27B3F4B1B885A43A37B02FB27
:1047F00003F1D4F81801FBF7A5FE227B394B1B8887
:104800005A43A37B02FB03F1D4F80C01FBF79AFE99
:10481000002031E0D4F8F41001EB800191ED000AA2
:10482000B5EEC00AF1EE10FA24D0D4F8F41001EB82
:10483000800191ED000A227CD4F8F41001EB820192
:1048400081ED000A227C616A8854A16901EB800134
:1048500091ED000A6169095C227B237C12FB031144
:10486000491ED4F80C2102EB810181ED000A217C64
:10487000491C2174411CC8B2A17B8142CADC0020C2
:1048800011E0626A125CE16901EB820191ED000ABC
:10489000227C00FB0202D4F8181101EB820181EDA9
:1048A000000A411CC8B2217C8142EADC207CA4F8C9
:1048B0007800217B7A200153207BA4F88000217CA2
:1048C00082200153207CA4F89000217C9220015387
:1048D000207BA4F89800217C9A200153207CA4F826
:1048E000480070BD1001002000BFFEE701490968C3
:1048F000486370473407002070B52DED088B86B0F3
:1049000004460D461646D4ED040ACA4890ED001A36
:1049100030EEC10AF0EEC00A9FEDC70AF4EEC00AFD
:10492000F1EE10FA22DCD4ED050AC44890ED001A2D
:1049300030EEC10AF0EEC00A9FEDBF0AF4EEC00AE5
:10494000F1EE10FA12DCD4ED060ABD4890ED001A23
:1049500030EEC10AF0EEC00A9FEDB70AF4EEC00ACD
:10496000F1EE10FA02DC207800287DD094ED040AE4
:10497000DFEDB40A80EE201AB0EE41BAB0EE4B0A79
:10498000FBF754FEF0EE408A94ED050ADFEDAD0A28
:1049900080EE201AB0EE41BAB0EE4B0AFBF746FEAD
:1049A000F0EE40AA94ED060ADFEDA60A80EE201A8A
:1049B000B0EE41BAB0EE4B0AFBF738FEB0EE409ACB
:1049C00094ED040ADFED9F0A80EE201AB0EE41BAA2
:1049D000B0EE4B0AFCF792F9B0EE40AA94ED050A4E
:1049E000DFED980A80EE201AB0EE41BAB0EE4B0A25
:1049F000FCF784F9F0EE409A94ED060ADFED910A97
:104A000080EE201AB0EE41BAB0EE4B0AFCF776F910
:104A1000B0EE408A68EE890A2AEE291AB0EE480AFA
:104A200041EE000A8848C0ED000A2AEE8A0A87484B
:104A300080ED000AB0EE480A28EE800A69EE0A0A04
:104A400000EEE90A824880ED000A68EEA90AB0EE9D
:104A5000480A20EE800A09EE4A0A7E4880ED000AE4
:104A600028EEAA0A7C4800E021E080ED000AF1EE81
:104A70004A0AB0EE480A20EE800A68EE890A00EE83
:104A8000E90A764880ED000AF1EE6A0AB0EE480ABB
:104A900020EE800A724880ED000A7248C0ED009A4C
:104AA0002AEE890A704880ED000A0020207000205C
:104AB00011E005EB800191ED000A211D01EB800161
:104AC000D1ED000A20EE200A03A901EB800181ED5F
:104AD000000A411CC8B20328EBDB9DED030A5A48CB
:104AE000D0ED000A20EE200ADDED040A574890EDD3
:104AF000001A01EE200ADDED050A554890ED001A76
:104B000001EE200A85ED000A9DED030A5148D0ED23
:104B1000000A20EE200ADDED040A4F4890ED001A4D
:104B200001EE200ADDED050A4C4890ED001A01EE79
:104B3000200A85ED010A9DED030A4948D0ED000ADF
:104B400020EE200ADDED040A464890ED001A01EE41
:104B5000200ADDED050A444890ED001A01EE200A16
:104B600085ED020A00200AE006EB800191ED000AC3
:104B7000694601EB800181ED000A411CC8B203289F
:104B8000F2DB9DED000A3048D0ED000A20EE200A4D
:104B9000DDED010A2D4890ED001A01EE200ADDED51
:104BA000020A2B4890ED001A01EE200A86ED000A59
:104BB0009DED000A2748D0ED000A20EE200ADDED29
:104BC000010A254890ED001A01EE200ADDED020AE7
:104BD000224890ED001A01EE200A86ED010A9DEDB3
:104BE000000A1F48D0ED000A20EE200ADDED010A80
:104BF0001C4890ED001A01EE200ADDED020A1A4869
:104C000090ED001A01EE200A86ED020A94ED040AE6
:104C1000084880ED000A94ED050A084880ED000A76
:104C200094ED060A064880ED000A06B0BDEC088B3C
:104C300070BD0000E00000206F12833AE400002005
:104C4000E8000020E12E6542EC000020F00000208A
:104C5000F4000020F8000020FC00002000010020EB
:104C600004010020080100200C01002010B52DEDEA
:104C7000088BB0EE40AAF0EE60AAB0EE41BAF0EEBA
:104C8000618AB0EE429AF0EE629AB0EE438AFE4834
:104C900080ED6F8A90ED580A3AEE400A80ED5B0A8B
:104CA00090ED590A3AEEC00A80ED5C0A90ED5A0A7E
:104CB0003BEE400A80ED5D0A90ED5B0AF6EE000ADD
:104CC00020EE200A20EE080AF04880ED000AEE48A7
:104CD00090ED5C0AF6EE000A20EE200A20EE080AAB
:104CE000EB4880ED000AE84890ED5D0AF6EE000A18
:104CF00020EE200A20EE080AE64880ED000AE2498C
:104D00009022D1F80401E449FBF7EAFBDF4890ED7B
:104D1000000AB1EE400ADC48D0F8040180ED010A37
:104D2000DB4890ED000AB1EE400AD748D0F8040104
:104D300080ED020AD74890ED000AB1EE400AD24851
:104D4000D0F8040180ED030AD04890ED000ACE4867
:104D5000D0F8040180ED060ACE4890ED000ACA485A
:104D6000D0F8040180ED080AC94890ED000AB1EEC0
:104D7000400AC548D0F8040180ED090AC44890ED06
:104D8000000AC148D0F8040180ED0C0AC14890ED3A
:104D9000000AB1EE400ABC48D0F8040180ED0D0ACB
:104DA000BA4890ED000AB848D0F8040180ED0F0A27
:104DB000B84890ED000AB448D0F8040180ED120A1A
:104DC000B34890ED000AB048D0F8040180ED130A12
:104DD000AE4890ED000AB1EE400AAB48D0F80401AD
:104DE00080ED140AA848D0F84811D0F84C010023EF
:104DF00059405840014306D1A348C0ED5E8A80ED7A
:104E00005F9AC0ED609AA04890ED5E0AD0ED640A0A
:104E100060EE200A90ED6F0A90ED641A30EE011AF0
:104E200080EE810AD0ED6F0A90ED641A70EE810A6F
:104E300090ED6F1A21EE281AC1EE201A30EE210AE9
:104E400080ED5E0A90ED5F0AD0ED640A20EE200A44
:104E5000D0ED6F0A90ED641A30EE811AC0EE010AAF
:104E600090ED6F0A90ED641A30EE010A90ED6F1A22
:104E700021EE091AC1EE001A30EEA10A80ED5F0A98
:104E800090ED600AD0ED640A20EE200AD0ED6F0AA2
:104E900090ED641A30EE811AC0EE010A90ED6F0AAF
:104EA00090ED641A30EE010A90ED6F1A21EE291A86
:104EB000C1EE001A30EEA10A80ED600AD0ED5E0A64
:104EC00060EEA00A90ED5F1AD0ED5F1A41EE210A64
:104ED00090ED601AD0ED601A41EE210AB0EE600A42
:104EE00004F086FE6D4880ED000A002011E06C4958
:104EF00001EB800191ED000A6849D1ED000A20EE36
:104F0000200A6149896801EB800181ED000A411C9A
:104F1000C8B20328EBDB5C48D0ED5B0A60EEA00A68
:104F200090ED5C1AD0ED5C1A41EE210A90ED5D1A0D
:104F3000D0ED5D1A41EE210AB0EE600A04F058FE91
:104F4000F7EE000A80EE801A4F4880ED651A53484C
:104F500090ED000AF7EE000A80EE801A4A4880EDD4
:104F6000661A90ED650ADFED4F0AB4EEE00AF1EE45
:104F700010FA16D290ED660ADFED4B0AB4EEE00AA5
:104F8000F1EE10FA0DDD90ED660ADFED480AB4EEA1
:104F9000E00AF1EE10FA04D201203B4981F8390110
:104FA00003E00020384981F83901374890ED6C0A58
:104FB000D0ED6F0A20EE200AD0F8180180ED000A2B
:104FC000314890ED6C0AD0ED6F0A20EE200AD0F83F
:104FD000180180ED070A2C4890ED6C0AD0ED6F0A9D
:104FE00020EE200AD0F8180180ED0E0A264890ED38
:104FF0006C0AD0ED6F0A20EE200AD0F8180180ED7F
:10500000150A214890ED6D0AD0ED6F0A20EE200AB6
:10501000D0F8180180ED1C0A1B4890ED6D0AD0ED08
:105020006F0A20EE200AD0F8180180ED230A1648F6
:1050300090ED6E0AD0F81C0180ED000A124890ED48
:105040006E0AD0F81C0180ED040A0F4890ED6E0A3C
:10505000D0F81C0180ED080A0B48001D00F070FB21
:105060000948406890ED000A074880ED540A4068FE
:1050700090ED010A044880ED550A406890ED020A5F
:10508000014880ED560A13E0C00A0020AC01002060
:10509000B0010020B40100209CB40008B801002039
:1050A000380C00209A99993ECDCC1441CDCC2441A6
:1050B000406890ED030A6A4880ED570A406890ED19
:1050C000040A674880ED580A406890ED050A644874
:1050D00080ED590A9FED630A80ED5A0A90ED541A4B
:1050E00021EE011AD0ED551A90ED552A01EE821AE3
:1050F000F7EE001AB0EE002A52EE011AF0EE610A45
:1051000090ED541AD0ED571A21EE211AD0ED551A10
:1051100090ED562A01EE821AF0EE001A21EE211AC5
:10512000B0EE410A04F0DAF9DFED4F0A20EE200A72
:105130004B4880ED6A0A90ED541A21EE011AD0ED29
:10514000571A90ED572A01EE821AF7EE001AB0EEC8
:10515000002A52EE011AF0EE610A90ED541AD0EDD9
:10516000551A21EE211AD0ED561A90ED572A01EE6C
:10517000821AF0EE001A21EE211AB0EE410A04F074
:10518000ADF9DFED390A20EE200A354880ED690AD5
:10519000D0ED550A90ED571A60EE810A90ED541A41
:1051A000D0ED561A41EE610AB8EE001A60EE810A9F
:1051B000B0EE600A04F0FCF8DFED2B0A20EE200AC6
:1051C000274880ED680A90ED6A0AD0ED760A30EE45
:1051D000600ADFED260AB4EEE00AF1EE10FA07DD10
:1051E000B0F8D401401E00B21D49A1F8D40114E06A
:1051F0001B4890ED6A0AD0ED760A30EE600ADFEDCA
:105200001C0AB4EEE00AF1EE10FA06D2B0F8D401AE
:10521000401C00B21249A1F8D401114890ED6A0A6D
:10522000B0F9D40100EE900AF8EEE00A9FED111AF1
:1052300001EE200A0A4880ED6B0A90ED6A0A80EDC3
:10524000760AD0F84821D0F84C01521C40F10000F9
:105250000349C1F84821C1F84C01BDEC088B10BDD1
:10526000C00A002000000000E12E65420000344327
:10527000000034C30000B44310B52DED028B144878
:10528000D0ED070AB0EE600A1248D0ED000A1248CD
:1052900000F01EFF1048D0ED140AB0EE600A04F0D2
:1052A00083FC00EE100AB8EEC00AB0EE408A9FED13
:1052B0000B1ADFED0B0A04F062FCBCEEC00A10EE24
:1052C000100A84B22046FFF711FBBDEC028B10BD23
:1052D0007C090020D8000020480A00200000804FF0
:1052E0000000000010B586B0774AD2E9001092683D
:1052F000CDE9040203917548FCF71AF9744880ED72
:10530000000A744890ED000A7148D0ED000A30EEB2
:10531000200A704880ED000A00BF6F48FBF760FD6F
:105320006D4890ED000A6D4880ED170A6A4890EDCF
:10533000010A6A4880ED180A674890ED020A67483A
:1053400080ED190A644890ED030A644880ED140A60
:10535000614890ED040A614880ED150A5E4890EDC1
:10536000050A5E4880ED160A00F15C0200F150016A
:105370005B48FFF7C1FA594890ED193AF0EE432A1D
:1053800090ED183AB0EE432A90ED173AF0EE431A3A
:1053900090ED163AB0EE431A90ED153AF0EE430A4E
:1053A00090ED143AB0EE430A494890ED003AFFF709
:1053B0005DFC4A494B48D0E91534026DC06D81E867
:1053C0001C00C8600A462C314748FBF76DFE434A73
:1053D00002F138014548FBF767FE404A02F14401FB
:1053E0004348FBF761FE3D4A694603A8FCF7C7F84E
:1053F000002039E039495C3101EB800191ED000A70
:10540000694601EB8001D1ED000A30EE600A3049B7
:10541000D1ED000A60EE200A304991ED0A0A2C49CC
:1054200091ED001A30EE011A80EE810A2B491031FD
:1054300001EB8001D1ED000A284991ED0A1A60EED6
:10544000810A91ED0A1A2249D1ED001A31EE211A92
:10545000C0EE811A30EE210A2049103101EB8001A3
:1054600081ED000A411CC8B20328C3DB1B4A02F1CC
:105470001C01A1F10C00FBF717FE1E4890ED6A0A13
:10548000164880ED1C0A1B4890ED690A134880ED10
:105490001B0A184890ED680A104880ED1A0A154852
:1054A00090ED6B0A0D4880ED1D0A00BF1248007890
:1054B00000F0010008B9FFF7DFFE0F480068401C4C
:1054C0000D49086006B010BD90B40008CC00002063
:1054D000D0000020D40000207C090020B00900206A
:1054E0002C0A0020C00B002034B4000840B400088F
:1054F0004CB40008C00A0020DC00002000F086FC4C
:1055000000BFFFF7EFFE012004F0D0FBF9E730B554
:105510000B46002100BF16E00A24B4EB107F05D92A
:10552000302404EB107403F8114005E0412404EB2F
:1055300010740A3C03F81140000100254C00641C63
:105540001D554C1CE1B29142E6DB30BD70B50446FE
:10555000E07B18B12046FFF72FF911E0A37B0E4D39
:105560002D8803FB05F26168D4F8F400FAF7B8FF60
:10557000A27B094B1B8802FB03F16068FAF7E2FF8C
:10558000637B054D2D8803FB05F2A168D4F8F0007C
:10559000FAF7A6FF70BD00001001002010B5044608
:1055A00094F82C0068BBB4F89800A4F8A8007A20FE
:1055B000015BAA200153B4F8A800A4F8B0005A2057
:1055C000015BB220015304F1A80204F1780104F157
:1055D0009800FBF74FFA84F8C80004F1B00204F118
:1055E000580104F1A800FBF745FA84F8C80004F15B
:1055F000500204F1B00104F15800FBF7CFFA84F82F
:10560000C80010BD10B5044694F8290068BB04F129
:10561000680104F16000FBF71FFB84F8C80004F187
:10562000580204F1500104F16000FBF723FA84F8FA
:10563000C800B4F85800A4F8A8006A20015BAA20AA
:10564000015304F1A80204F1680104F15800FBF7CA
:1056500011FA84F8C80004F1580204F1880104F139
:10566000A800FBF72FF884F8C80010BD10B5044659
:1056700094F82A00002861D104F1800104F1780037
:10568000FBF7EAFA84F8C800B4F87800A4F8A80098
:105690005A20015BAA20015304F1A80204F1580129
:1056A00004F17800FBF7E6F984F8C800B4F8A80024
:1056B000A4F8B0008220015BB220015304F1B002D3
:1056C00004F1800104F1A800FBF7D4F984F8C800C4
:1056D000B4F89000A4F8A0009220015BA22001532E
:1056E00004F1A00204F1900104F1B000FAF7EAFF1E
:1056F00084F8C80004F1B00104F1A000FBF740F801
:1057000084F8C800B4F85800A4F8A8008220015B0F
:10571000AA20015304F1A80204F1800104F1580009
:10572000FBF7A8F984F8C80004F1980204F1B0016D
:1057300004F1A800FBF79EF984F8C80010BD000032
:1057400070B504462046FFF701FFD4F8CC0018B12D
:105750002046D4F8CC108847204600F085F8D4F8CD
:10576000D00018B12046D4F8D01088472046FFF763
:1057700049FFD4F8D40018B12046D4F8D410884793
:10578000207C08B9E07BB8B92046FFF76FFFD4F85A
:10579000D80018B12046D4F8D8108847204600F029
:1057A000A1F8D4F8DC0018B12046D4F8DC10884702
:1057B0002046FFF7F3FE13E0237B2A4D2D8803FBE1
:1057C00005F2D4E93A01FAF78BFE237B254D2D88AB
:1057D0006B43257B03FB05F2D4E93E01FAF780FE1B
:1057E000D4F8E00018B12046D4F8E0108847002033
:1057F00022E0227B00FB0202D4F8F81001EB8201C8
:1058000091ED000A216A01EB8001D1ED000AB4EEAE
:10581000E00AF1EE10FA0DD2216A01EB800191ED60
:10582000000A227B00FB0202D4F8F81001EB82018F
:1058300081ED000A411CC8B2217B8142D9DC237B67
:10584000084D2D8803FB05F2D4F8E8102068FAF71C
:1058500047FED4F8E40018B12046D4F8E410884795
:10586000206870BD1001002010B5044694F828008F
:1058700060BB607B00282ADD207BA4F8B8000121F2
:10588000BA20015304F1B80204F1300104F16000C0
:10589000FBF7F0F884F8C800207BA4F8C0000121D1
:1058A000C220015304F1C00204F1400104F1700070
:1058B000FBF7E0F884F8C80004F1380204F1C001F5
:1058C00004F1B800FAF7FEFE84F8C80009E004F11C
:1058D000380204F1300104F16000FBF7CBF884F8E2
:1058E000C80010BD10B5044694F82B00E0BBB4F816
:1058F0007800A4F8B8000121BA20015304F1B802DD
:1059000004F1380104F17800FBF7B4F884F8C8001A
:10591000B4F84800A4F8C0000121C220015304F1EA
:10592000C00204F1B80104F14800FBF737F984F82C
:10593000C800B4F89800A4F8B8000121BA200153B7
:1059400004F1B80204F1C00104F19800FBF792F8E9
:1059500084F8C80004F1300204F1B80104F1380001
:10596000FAF7B0FE84F8C80010BD000010B50E486C
:105970000E4908600320486000210C488160C16026
:105980004FF4102101614FF40011416100210176B3
:1059900041768176C17601774177FCF7C1F808B18D
:1059A000FBF79AFE10BD000000640040CC0500200B
:1059B00010B50E480E4908600320486000210C48CD
:1059C0008160C1604FF4102101614FF40011416109
:1059D0000021017641768176C17601774177FCF727
:1059E0009FF808B1FBF778FE10BD0000006800408A
:1059F000F405002008B500BF002000901E48006894
:105A000040F400101C4908600846006800F40010CB
:105A1000009000BF00BF00BF002000900846006853
:105A200040F4800008600846006800F480000090A0
:105A300000BF00BF002205210C20FCF789FD0C20CF
:105A4000FCF772FD002205213820FCF781FD38208B
:105A5000FCF76AFD002205213A20FCF779FD3A2087
:105A6000FCF762FD002205213B20FCF771FD3B2085
:105A7000FCF75AFD08BD00003038024000B59DB06B
:105A80001C22184916A8FAF72BFD002116A804F0CD
:105A90001EF9154908601C2212491C310FA8FAF79B
:105AA0001FFD00210FA804F012F9104908601C2204
:105AB0000C49383108A8FAF713FD002108A804F0B2
:105AC00006F90B4908601C220649543101A8FAF76F
:105AD00007FD002101A804F0FAF8064908601DB08E
